:10094B00060848656C6C6F00100E455344204D61D2
:0A095B0073746572636C61737300BE
:0C092D001209397F801208DD7F0F7E0068
:10093900E4FDFCC3ED9FEC9E50070DBD00010C804A
:01094900F2BB
:01094A00228A
:1008DD00AB07EB54F0F580C280C281D2827F237EBC
:1008ED0000120939C282EBC454F0F580C280C28176
:0808FD00D282120939C28222E5
:10090500AB07EB54F0F580D280C281D2827F237E83
:1009150000120939C282EBC454F0F580D280C2813D
:08092500D282120939C28222BC
:10088C007F281209327F0C1209327F061209327F3F
:10089C00011209327F887E1312092D900000AF825D
:1008AC0074082FF8E6FF6006120905A380F07F326A
:1008BC007E0012092DE4F583F582AF82740E2FF8B9
:1008CC00E6FF6006120905A380F07F327E00020964
:0108DC0039E2
:0F096600E4F58012088C7F0A7E0012093980FEAA
:03000000020800F3
:0C080000787FE4F6D8FD75811D020847E2
:10080C00020966E493A3F8E493A34003F68001F293
:10081C0008DFF48029E493A3F85407240CC8C333ED
:10082C00C4540F4420C8834004F456800146F6DFBC
:10083C00E4800B010204081020408090094BE47EF8
:10084C00019360BCA3FF543F30E509541FFEE493B1
:10085C00A360010ECF54C025E060A840B8E493A378
:10086C00FAE493A3F8E493A3C8C582C8CAC583CAA3
:10087C00F0A3C8C582C8CAC583CADFE9DEE780BE5B
:010965000091
:00000001FF
