:10084D004C616D70204F6E004C616D70204F66666F
:10085D000046616E204F6E0046616E204F66660049
:10086D0043686F6F736520612073746174653A20FE
:0C087D0020312C20322C20332C203400A1
:0C08DF00758920758DFD759850D28E2211
:0808F7008F993099FDC299228E
:0708FF003098FDC298AF998B
:0109060022CE
:0608B6008B088A09890A83
:1008BC00E4FDFCAB08AA09A90A8D828C8312088975
:1008CC00FFFB3395E04B600A1208F70DBD00010CDD
:0208DC0080E1B9
:0108DE0022F7
:100800001208DFE4F5801208FFAE07BE310AD2807D
:100810007BFF7A08794D8025BE320AC2807BFF7A41
:100820000879558018BE330AD2817BFF7A08795E39
:10083000800BBE340DC2817BFF7A0879651208B641
:0D08400080C47BFF7A08796D1208B680B97C
:030000000208EB08
:0C08EB00787FE4F6D8FD75810A02080051
:10088900BB010CE58229F582E5833AF583E0225024
:1008990006E92582F8E622BBFE06E92582F8E2226E
:0D08A900E58229F582E5833AF583E4932288
:00000001FF
